{
  "_format": "hh-sol-artifact-1",
  "contractName": "Pintech",
  "sourceName": "contracts/Pintech.sol",
  "abi": [
    {
      "inputs": [],
      "stateMutability": "nonpayable",
      "type": "constructor"
    },
    {
      "anonymous": false,
      "inputs": [
        {
          "indexed": true,
          "internalType": "address",
          "name": "owner",
          "type": "address"
        },
        {
          "indexed": true,
          "internalType": "address",
          "name": "approved",
          "type": "address"
        },
        {
          "indexed": true,
          "internalType": "uint256",
          "name": "tokenId",
          "type": "uint256"
        }
      ],
      "name": "Approval",
      "type": "event"
    },
    {
      "anonymous": false,
      "inputs": [
        {
          "indexed": true,
          "internalType": "address",
          "name": "owner",
          "type": "address"
        },
        {
          "indexed": true,
          "internalType": "address",
          "name": "operator",
          "type": "address"
        },
        {
          "indexed": false,
          "internalType": "bool",
          "name": "approved",
          "type": "bool"
        }
      ],
      "name": "ApprovalForAll",
      "type": "event"
    },
    {
      "anonymous": false,
      "inputs": [
        {
          "indexed": true,
          "internalType": "address",
          "name": "to",
          "type": "address"
        },
        {
          "indexed": true,
          "internalType": "uint256",
          "name": "tokenId",
          "type": "uint256"
        },
        {
          "indexed": false,
          "internalType": "string",
          "name": "uuid",
          "type": "string"
        },
        {
          "indexed": false,
          "internalType": "string",
          "name": "agentName",
          "type": "string"
        }
      ],
      "name": "NFTMinted",
      "type": "event"
    },
    {
      "anonymous": false,
      "inputs": [
        {
          "indexed": true,
          "internalType": "address",
          "name": "previousOwner",
          "type": "address"
        },
        {
          "indexed": true,
          "internalType": "address",
          "name": "newOwner",
          "type": "address"
        }
      ],
      "name": "OwnershipTransferred",
      "type": "event"
    },
    {
      "anonymous": false,
      "inputs": [
        {
          "indexed": true,
          "internalType": "address",
          "name": "from",
          "type": "address"
        },
        {
          "indexed": true,
          "internalType": "address",
          "name": "to",
          "type": "address"
        },
        {
          "indexed": true,
          "internalType": "uint256",
          "name": "tokenId",
          "type": "uint256"
        }
      ],
      "name": "Transfer",
      "type": "event"
    },
    {
      "inputs": [
        {
          "internalType": "address",
          "name": "to",
          "type": "address"
        },
        {
          "internalType": "uint256",
          "name": "tokenId",
          "type": "uint256"
        }
      ],
      "name": "approve",
      "outputs": [],
      "stateMutability": "nonpayable",
      "type": "function"
    },
    {
      "inputs": [
        {
          "internalType": "address",
          "name": "owner",
          "type": "address"
        }
      ],
      "name": "balanceOf",
      "outputs": [
        {
          "internalType": "uint256",
          "name": "",
          "type": "uint256"
        }
      ],
      "stateMutability": "view",
      "type": "function"
    },
    {
      "inputs": [
        {
          "internalType": "string",
          "name": "uuid",
          "type": "string"
        }
      ],
      "name": "getAgentNameByUUID",
      "outputs": [
        {
          "internalType": "string",
          "name": "",
          "type": "string"
        }
      ],
      "stateMutability": "view",
      "type": "function"
    },
    {
      "inputs": [
        {
          "internalType": "uint256",
          "name": "tokenId",
          "type": "uint256"
        }
      ],
      "name": "getApproved",
      "outputs": [
        {
          "internalType": "address",
          "name": "",
          "type": "address"
        }
      ],
      "stateMutability": "view",
      "type": "function"
    },
    {
      "inputs": [
        {
          "internalType": "address",
          "name": "owner",
          "type": "address"
        },
        {
          "internalType": "address",
          "name": "operator",
          "type": "address"
        }
      ],
      "name": "isApprovedForAll",
      "outputs": [
        {
          "internalType": "bool",
          "name": "",
          "type": "bool"
        }
      ],
      "stateMutability": "view",
      "type": "function"
    },
    {
      "inputs": [
        {
          "internalType": "address",
          "name": "to",
          "type": "address"
        },
        {
          "internalType": "string",
          "name": "uuid",
          "type": "string"
        },
        {
          "internalType": "string",
          "name": "agentName",
          "type": "string"
        }
      ],
      "name": "mintWithAgentInfo",
      "outputs": [],
      "stateMutability": "nonpayable",
      "type": "function"
    },
    {
      "inputs": [],
      "name": "name",
      "outputs": [
        {
          "internalType": "string",
          "name": "",
          "type": "string"
        }
      ],
      "stateMutability": "view",
      "type": "function"
    },
    {
      "inputs": [],
      "name": "owner",
      "outputs": [
        {
          "internalType": "address",
          "name": "",
          "type": "address"
        }
      ],
      "stateMutability": "view",
      "type": "function"
    },
    {
      "inputs": [
        {
          "internalType": "uint256",
          "name": "tokenId",
          "type": "uint256"
        }
      ],
      "name": "ownerOf",
      "outputs": [
        {
          "internalType": "address",
          "name": "",
          "type": "address"
        }
      ],
      "stateMutability": "view",
      "type": "function"
    },
    {
      "inputs": [
        {
          "internalType": "string",
          "name": "uuid",
          "type": "string"
        }
      ],
      "name": "ownerOfUUID",
      "outputs": [
        {
          "internalType": "address",
          "name": "",
          "type": "address"
        }
      ],
      "stateMutability": "view",
      "type": "function"
    },
    {
      "inputs": [],
      "name": "renounceOwnership",
      "outputs": [],
      "stateMutability": "nonpayable",
      "type": "function"
    },
    {
      "inputs": [
        {
          "internalType": "address",
          "name": "from",
          "type": "address"
        },
        {
          "internalType": "address",
          "name": "to",
          "type": "address"
        },
        {
          "internalType": "uint256",
          "name": "tokenId",
          "type": "uint256"
        }
      ],
      "name": "safeTransferFrom",
      "outputs": [],
      "stateMutability": "nonpayable",
      "type": "function"
    },
    {
      "inputs": [
        {
          "internalType": "address",
          "name": "from",
          "type": "address"
        },
        {
          "internalType": "address",
          "name": "to",
          "type": "address"
        },
        {
          "internalType": "uint256",
          "name": "tokenId",
          "type": "uint256"
        },
        {
          "internalType": "bytes",
          "name": "data",
          "type": "bytes"
        }
      ],
      "name": "safeTransferFrom",
      "outputs": [],
      "stateMutability": "nonpayable",
      "type": "function"
    },
    {
      "inputs": [
        {
          "internalType": "address",
          "name": "operator",
          "type": "address"
        },
        {
          "internalType": "bool",
          "name": "approved",
          "type": "bool"
        }
      ],
      "name": "setApprovalForAll",
      "outputs": [],
      "stateMutability": "nonpayable",
      "type": "function"
    },
    {
      "inputs": [
        {
          "internalType": "bytes4",
          "name": "interfaceId",
          "type": "bytes4"
        }
      ],
      "name": "supportsInterface",
      "outputs": [
        {
          "internalType": "bool",
          "name": "",
          "type": "bool"
        }
      ],
      "stateMutability": "view",
      "type": "function"
    },
    {
      "inputs": [],
      "name": "symbol",
      "outputs": [
        {
          "internalType": "string",
          "name": "",
          "type": "string"
        }
      ],
      "stateMutability": "view",
      "type": "function"
    },
    {
      "inputs": [
        {
          "internalType": "uint256",
          "name": "",
          "type": "uint256"
        }
      ],
      "name": "tokenIdToAgentName",
      "outputs": [
        {
          "internalType": "string",
          "name": "",
          "type": "string"
        }
      ],
      "stateMutability": "view",
      "type": "function"
    },
    {
      "inputs": [
        {
          "internalType": "uint256",
          "name": "tokenId",
          "type": "uint256"
        }
      ],
      "name": "tokenURI",
      "outputs": [
        {
          "internalType": "string",
          "name": "",
          "type": "string"
        }
      ],
      "stateMutability": "view",
      "type": "function"
    },
    {
      "inputs": [
        {
          "internalType": "address",
          "name": "from",
          "type": "address"
        },
        {
          "internalType": "address",
          "name": "to",
          "type": "address"
        },
        {
          "internalType": "uint256",
          "name": "tokenId",
          "type": "uint256"
        }
      ],
      "name": "transferFrom",
      "outputs": [],
      "stateMutability": "nonpayable",
      "type": "function"
    },
    {
      "inputs": [
        {
          "internalType": "address",
          "name": "newOwner",
          "type": "address"
        }
      ],
      "name": "transferOwnership",
      "outputs": [],
      "stateMutability": "nonpayable",
      "type": "function"
    },
    {
      "inputs": [
        {
          "internalType": "string",
          "name": "",
          "type": "string"
        }
      ],
      "name": "uuidToTokenId",
      "outputs": [
        {
          "internalType": "uint256",
          "name": "",
          "type": "uint256"
        }
      ],
      "stateMutability": "view",
      "type": "function"
    },
    {
      "inputs": [
        {
          "internalType": "string",
          "name": "uuid",
          "type": "string"
        }
      ],
      "name": "verifyUser",
      "outputs": [
        {
          "internalType": "bool",
          "name": "exists",
          "type": "bool"
        }
      ],
      "stateMutability": "view",
      "type": "function"
    }
  ],
  "bytecode": "0x608060405260016007553480156200001657600080fd5b506040518060400160405280600981526020017f5665726966794e465400000000000000000000000000000000000000000000008152506040518060400160405280600481526020017f4d4e465400000000000000000000000000000000000000000000000000000000815250816000908162000094919062000417565b508060019081620000a6919062000417565b505050620000c9620000bd620000cf60201b60201c565b620000d760201b60201c565b620004fe565b600033905090565b6000600660009054906101000a900473ffffffffffffffffffffffffffffffffffffffff16905081600660006101000a81548173ffffffffffffffffffffffffffffffffffffffff021916908373ffffffffffffffffffffffffffffffffffffffff1602179055508173ffffffffffffffffffffffffffffffffffffffff168173ffffffffffffffffffffffffffffffffffffffff167f8be0079c531659141344cd1fd0a4f28419497f9722a3daafe3b4186f6b6457e060405160405180910390a35050565b600081519050919050565b7f4e487b7100000000000000000000000000000000000000000000000000000000600052604160045260246000fd5b7f4e487b7100000000000000000000000000000000000000000000000000000000600052602260045260246000fd5b600060028204905060018216806200021f57607f821691505b602082108103620002355762000234620001d7565b5b50919050565b60008190508160005260206000209050919050565b60006020601f8301049050919050565b600082821b905092915050565b6000600883026200029f7fffffffffffffffffffffffffffffffffffffffffffffffffffffffffffffffff8262000260565b620002ab868362000260565b95508019841693508086168417925050509392505050565b6000819050919050565b6000819050919050565b6000620002f8620002f2620002ec84620002c3565b620002cd565b620002c3565b9050919050565b6000819050919050565b6200031483620002d7565b6200032c6200032382620002ff565b8484546200026d565b825550505050565b600090565b6200034362000334565b6200035081848462000309565b505050565b5b8181101562000378576200036c60008262000339565b60018101905062000356565b5050565b601f821115620003c75762000391816200023b565b6200039c8462000250565b81016020851015620003ac578190505b620003c4620003bb8562000250565b83018262000355565b50505b505050565b600082821c905092915050565b6000620003ec60001984600802620003cc565b1980831691505092915050565b6000620004078383620003d9565b9150826002028217905092915050565b62000422826200019d565b67ffffffffffffffff8111156200043e576200043d620001a8565b5b6200044a825462000206565b620004578282856200037c565b600060209050601f8311600181146200048f57600084156200047a578287015190505b620004868582620003f9565b865550620004f6565b601f1984166200049f866200023b565b60005b82811015620004c957848901518255600182019150602085019450602081019050620004a2565b86831015620004e95784890151620004e5601f891682620003d9565b8355505b6001600288020188555050505b505050505050565b613215806200050e6000396000f3fe608060405234801561001057600080fd5b50600436106101425760003560e01c80638da5cb5b116100b8578063b88d4fde1161007c578063b88d4fde1461039b578063c87b56dd146103b7578063dbf0c2aa146103e7578063e600c81714610403578063e985e9c514610433578063f2fde38b1461046357610142565b80638da5cb5b146102e357806395c0954c1461030157806395d89b4114610331578063a22cb4651461034f578063b024a7091461036b57610142565b806323b872dd1161010a57806323b872dd146102115780633eacfd1c1461022d57806342842e0e1461025d5780636352211e1461027957806370a08231146102a9578063715018a6146102d957610142565b806301ffc9a71461014757806306fdde0314610177578063081812fc14610195578063095ea7b3146101c5578063111395b0146101e1575b600080fd5b610161600480360381019061015c9190611e83565b61047f565b60405161016e9190611ecb565b60405180910390f35b61017f610561565b60405161018c9190611f76565b60405180910390f35b6101af60048036038101906101aa9190611fce565b6105f3565b6040516101bc919061203c565b60405180910390f35b6101df60048036038101906101da9190612083565b610639565b005b6101fb60048036038101906101f691906121f8565b610750565b6040516102089190611f76565b60405180910390f35b61022b60048036038101906102269190612241565b61085c565b005b61024760048036038101906102429190611fce565b6108bc565b6040516102549190611f76565b60405180910390f35b61027760048036038101906102729190612241565b61095c565b005b610293600480360381019061028e9190611fce565b61097c565b6040516102a0919061203c565b60405180910390f35b6102c360048036038101906102be9190612294565b610a02565b6040516102d091906122d0565b60405180910390f35b6102e1610ab9565b005b6102eb610acd565b6040516102f8919061203c565b60405180910390f35b61031b600480360381019061031691906121f8565b610af7565b604051610328919061203c565b60405180910390f35b610339610b6f565b6040516103469190611f76565b60405180910390f35b61036960048036038101906103649190612317565b610c01565b005b610385600480360381019061038091906121f8565b610c17565b60405161039291906122d0565b60405180910390f35b6103b560048036038101906103b091906123f8565b610c45565b005b6103d160048036038101906103cc9190611fce565b610ca7565b6040516103de9190611f76565b60405180910390f35b61040160048036038101906103fc919061247b565b610d0f565b005b61041d600480360381019061041891906121f8565b610e3c565b60405161042a9190611ecb565b60405180910390f35b61044d60048036038101906104489190612506565b610e67565b60405161045a9190611ecb565b60405180910390f35b61047d60048036038101906104789190612294565b610efb565b005b60007f80ac58cd000000000000000000000000000000000000000000000000000000007bffffffffffffffffffffffffffffffffffffffffffffffffffffffff1916827bffffffffffffffffffffffffffffffffffffffffffffffffffffffff1916148061054a57507f5b5e139f000000000000000000000000000000000000000000000000000000007bffffffffffffffffffffffffffffffffffffffffffffffffffffffff1916827bffffffffffffffffffffffffffffffffffffffffffffffffffffffff1916145b8061055a575061055982610f7e565b5b9050919050565b60606000805461057090612575565b80601f016020809104026020016040519081016040528092919081815260200182805461059c90612575565b80156105e95780601f106105be576101008083540402835291602001916105e9565b820191906000526020600020905b8154815290600101906020018083116105cc57829003601f168201915b5050505050905090565b60006105fe82610fe8565b6004600083815260200190815260200160002060009054906101000a900473ffffffffffffffffffffffffffffffffffffffff169050919050565b60006106448261097c565b90508073ffffffffffffffffffffffffffffffffffffffff168373ffffffffffffffffffffffffffffffffffffffff16036106b4576040517f08c379a00000000000000000000000000000000000000000000000000000000081526004016106ab90612618565b60405180910390fd5b8073ffffffffffffffffffffffffffffffffffffffff166106d3611033565b73ffffffffffffffffffffffffffffffffffffffff1614806107025750610701816106fc611033565b610e67565b5b610741576040517f08c379a0000000000000000000000000000000000000000000000000000000008152600401610738906126aa565b60405180910390fd5b61074b838361103b565b505050565b606060006008836040516107649190612706565b9081526020016040518091039020549050600081036107b8576040517f08c379a00000000000000000000000000000000000000000000000000000000081526004016107af90612769565b60405180910390fd5b6009600082815260200190815260200160002080546107d690612575565b80601f016020809104026020016040519081016040528092919081815260200182805461080290612575565b801561084f5780601f106108245761010080835404028352916020019161084f565b820191906000526020600020905b81548152906001019060200180831161083257829003601f168201915b5050505050915050919050565b61086d610867611033565b826110f4565b6108ac576040517f08c379a00000000000000000000000000000000000000000000000000000000081526004016108a3906127fb565b60405180910390fd5b6108b7838383611189565b505050565b600960205280600052604060002060009150905080546108db90612575565b80601f016020809104026020016040519081016040528092919081815260200182805461090790612575565b80156109545780601f1061092957610100808354040283529160200191610954565b820191906000526020600020905b81548152906001019060200180831161093757829003601f168201915b505050505081565b61097783838360405180602001604052806000815250610c45565b505050565b60008061098883611482565b9050600073ffffffffffffffffffffffffffffffffffffffff168173ffffffffffffffffffffffffffffffffffffffff16036109f9576040517f08c379a00000000000000000000000000000000000000000000000000000000081526004016109f090612867565b60405180910390fd5b80915050919050565b60008073ffffffffffffffffffffffffffffffffffffffff168273ffffffffffffffffffffffffffffffffffffffff1603610a72576040517f08c379a0000000000000000000000000000000000000000000000000000000008152600401610a69906128f9565b60405180910390fd5b600360008373ffffffffffffffffffffffffffffffffffffffff1673ffffffffffffffffffffffffffffffffffffffff168152602001908152602001600020549050919050565b610ac16114bf565b610acb600061153d565b565b6000600660009054906101000a900473ffffffffffffffffffffffffffffffffffffffff16905090565b600080600883604051610b0a9190612706565b908152602001604051809103902054905060008103610b5e576040517f08c379a0000000000000000000000000000000000000000000000000000000008152600401610b5590612769565b60405180910390fd5b610b678161097c565b915050919050565b606060018054610b7e90612575565b80601f0160208091040260200160405190810160405280929190818152602001828054610baa90612575565b8015610bf75780601f10610bcc57610100808354040283529160200191610bf7565b820191906000526020600020905b815481529060010190602001808311610bda57829003601f168201915b5050505050905090565b610c13610c0c611033565b8383611603565b5050565b6008818051602081018201805184825260208301602085012081835280955050505050506000915090505481565b610c56610c50611033565b836110f4565b610c95576040517f08c379a0000000000000000000000000000000000000000000000000000000008152600401610c8c906127fb565b60405180910390fd5b610ca18484848461176f565b50505050565b6060610cb282610fe8565b6000610cbc6117cb565b90506000815111610cdc5760405180602001604052806000815250610d07565b80610ce6846117e2565b604051602001610cf7929190612919565b6040516020818303038152906040525b915050919050565b610d176114bf565b6000600883604051610d299190612706565b90815260200160405180910390205414610d78576040517f08c379a0000000000000000000000000000000000000000000000000000000008152600401610d6f90612989565b60405180910390fd5b60006007549050610d8984826118b0565b80600884604051610d9a9190612706565b90815260200160405180910390208190555081600960008381526020019081526020016000209081610dcc9190612b55565b5060076000815480929190610de090612c56565b9190505550808473ffffffffffffffffffffffffffffffffffffffff167fe260f93729f4de5d60ff8d8ab8c7e6afc76218c4cc0f6f7e617398e20a358a2d8585604051610e2e929190612c9e565b60405180910390a350505050565b600080600883604051610e4f9190612706565b90815260200160405180910390205414159050919050565b6000600560008473ffffffffffffffffffffffffffffffffffffffff1673ffffffffffffffffffffffffffffffffffffffff16815260200190815260200160002060008373ffffffffffffffffffffffffffffffffffffffff1673ffffffffffffffffffffffffffffffffffffffff16815260200190815260200160002060009054906101000a900460ff16905092915050565b610f036114bf565b600073ffffffffffffffffffffffffffffffffffffffff168173ffffffffffffffffffffffffffffffffffffffff1603610f72576040517f08c379a0000000000000000000000000000000000000000000000000000000008152600401610f6990612d47565b60405180910390fd5b610f7b8161153d565b50565b60007f01ffc9a7000000000000000000000000000000000000000000000000000000007bffffffffffffffffffffffffffffffffffffffffffffffffffffffff1916827bffffffffffffffffffffffffffffffffffffffffffffffffffffffff1916149050919050565b610ff181611acd565b611030576040517f08c379a000000000000000000000000000000000000000000000000000000000815260040161102790612867565b60405180910390fd5b50565b600033905090565b816004600083815260200190815260200160002060006101000a81548173ffffffffffffffffffffffffffffffffffffffff021916908373ffffffffffffffffffffffffffffffffffffffff160217905550808273ffffffffffffffffffffffffffffffffffffffff166110ae8361097c565b73ffffffffffffffffffffffffffffffffffffffff167f8c5be1e5ebec7d5bd14f71427d1e84f3dd0314c0f7b2291e5b200ac8c7c3b92560405160405180910390a45050565b6000806111008361097c565b90508073ffffffffffffffffffffffffffffffffffffffff168473ffffffffffffffffffffffffffffffffffffffff16148061114257506111418185610e67565b5b8061118057508373ffffffffffffffffffffffffffffffffffffffff16611168846105f3565b73ffffffffffffffffffffffffffffffffffffffff16145b91505092915050565b8273ffffffffffffffffffffffffffffffffffffffff166111a98261097c565b73ffffffffffffffffffffffffffffffffffffffff16146111ff576040517f08c379a00000000000000000000000000000000000000000000000000000000081526004016111f690612dd9565b60405180910390fd5b600073ffffffffffffffffffffffffffffffffffffffff168273ffffffffffffffffffffffffffffffffffffffff160361126e576040517f08c379a000000000000000000000000000000000000000000000000000000000815260040161126590612e6b565b60405180910390fd5b61127b8383836001611b0e565b8273ffffffffffffffffffffffffffffffffffffffff1661129b8261097c565b73ffffffffffffffffffffffffffffffffffffffff16146112f1576040517f08c379a00000000000000000000000000000000000000000000000000000000081526004016112e890612dd9565b60405180910390fd5b6004600082815260200190815260200160002060006101000a81549073ffffffffffffffffffffffffffffffffffffffff02191690556001600360008573ffffffffffffffffffffffffffffffffffffffff1673ffffffffffffffffffffffffffffffffffffffff168152602001908152602001600020600082825403925050819055506001600360008473ffffffffffffffffffffffffffffffffffffffff1673ffffffffffffffffffffffffffffffffffffffff16815260200190815260200160002060008282540192505081905550816002600083815260200190815260200160002060006101000a81548173ffffffffffffffffffffffffffffffffffffffff021916908373ffffffffffffffffffffffffffffffffffffffff160217905550808273ffffffffffffffffffffffffffffffffffffffff168473ffffffffffffffffffffffffffffffffffffffff167fddf252ad1be2c89b69c2b068fc378daa952ba7f163c4a11628f55a4df523b3ef60405160405180910390a461147d8383836001611b14565b505050565b60006002600083815260200190815260200160002060009054906101000a900473ffffffffffffffffffffffffffffffffffffffff169050919050565b6114c7611033565b73ffffffffffffffffffffffffffffffffffffffff166114e5610acd565b73ffffffffffffffffffffffffffffffffffffffff161461153b576040517f08c379a000000000000000000000000000000000000000000000000000000000815260040161153290612ed7565b60405180910390fd5b565b6000600660009054906101000a900473ffffffffffffffffffffffffffffffffffffffff16905081600660006101000a81548173ffffffffffffffffffffffffffffffffffffffff021916908373ffffffffffffffffffffffffffffffffffffffff1602179055508173ffffffffffffffffffffffffffffffffffffffff168173ffffffffffffffffffffffffffffffffffffffff167f8be0079c531659141344cd1fd0a4f28419497f9722a3daafe3b4186f6b6457e060405160405180910390a35050565b8173ffffffffffffffffffffffffffffffffffffffff168373ffffffffffffffffffffffffffffffffffffffff1603611671576040517f08c379a000000000000000000000000000000000000000000000000000000000815260040161166890612f43565b60405180910390fd5b80600560008573ffffffffffffffffffffffffffffffffffffffff1673ffffffffffffffffffffffffffffffffffffffff16815260200190815260200160002060008473ffffffffffffffffffffffffffffffffffffffff1673ffffffffffffffffffffffffffffffffffffffff16815260200190815260200160002060006101000a81548160ff0219169083151502179055508173ffffffffffffffffffffffffffffffffffffffff168373ffffffffffffffffffffffffffffffffffffffff167f17307eab39ab6107e8899845ad3d59bd9653f200f220920489ca2b5937696c31836040516117629190611ecb565b60405180910390a3505050565b61177a848484611189565b61178684848484611b1a565b6117c5576040517f08c379a00000000000000000000000000000000000000000000000000000000081526004016117bc90612fd5565b60405180910390fd5b50505050565b606060405180602001604052806000815250905090565b6060600060016117f184611ca1565b01905060008167ffffffffffffffff8111156118105761180f6120cd565b5b6040519080825280601f01601f1916602001820160405280156118425781602001600182028036833780820191505090505b509050600082602001820190505b6001156118a5578080600190039150507f3031323334353637383961626364656600000000000000000000000000000000600a86061a8153600a858161189957611898612ff5565b5b04945060008503611850575b819350505050919050565b600073ffffffffffffffffffffffffffffffffffffffff168273ffffffffffffffffffffffffffffffffffffffff160361191f576040517f08c379a000000000000000000000000000000000000000000000000000000000815260040161191690613070565b60405180910390fd5b61192881611acd565b15611968576040517f08c379a000000000000000000000000000000000000000000000000000000000815260040161195f906130dc565b60405180910390fd5b611976600083836001611b0e565b61197f81611acd565b156119bf576040517f08c379a00000000000000000000000000000000000000000000000000000000081526004016119b6906130dc565b60405180910390fd5b6001600360008473ffffffffffffffffffffffffffffffffffffffff1673ffffffffffffffffffffffffffffffffffffffff16815260200190815260200160002060008282540192505081905550816002600083815260200190815260200160002060006101000a81548173ffffffffffffffffffffffffffffffffffffffff021916908373ffffffffffffffffffffffffffffffffffffffff160217905550808273ffffffffffffffffffffffffffffffffffffffff16600073ffffffffffffffffffffffffffffffffffffffff167fddf252ad1be2c89b69c2b068fc378daa952ba7f163c4a11628f55a4df523b3ef60405160405180910390a4611ac9600083836001611b14565b5050565b60008073ffffffffffffffffffffffffffffffffffffffff16611aef83611482565b73ffffffffffffffffffffffffffffffffffffffff1614159050919050565b50505050565b50505050565b6000611b3b8473ffffffffffffffffffffffffffffffffffffffff16611df4565b15611c94578373ffffffffffffffffffffffffffffffffffffffff1663150b7a02611b64611033565b8786866040518563ffffffff1660e01b8152600401611b869493929190613151565b6020604051808303816000875af1925050508015611bc257506040513d601f19601f82011682018060405250810190611bbf91906131b2565b60015b611c44573d8060008114611bf2576040519150601f19603f3d011682016040523d82523d6000602084013e611bf7565b606091505b506000815103611c3c576040517f08c379a0000000000000000000000000000000000000000000000000000000008152600401611c3390612fd5565b60405180910390fd5b805181602001fd5b63150b7a0260e01b7bffffffffffffffffffffffffffffffffffffffffffffffffffffffff1916817bffffffffffffffffffffffffffffffffffffffffffffffffffffffff191614915050611c99565b600190505b949350505050565b600080600090507a184f03e93ff9f4daa797ed6e38ed64bf6a1f0100000000000000008310611cff577a184f03e93ff9f4daa797ed6e38ed64bf6a1f0100000000000000008381611cf557611cf4612ff5565b5b0492506040810190505b6d04ee2d6d415b85acef81000000008310611d3c576d04ee2d6d415b85acef81000000008381611d3257611d31612ff5565b5b0492506020810190505b662386f26fc100008310611d6b57662386f26fc100008381611d6157611d60612ff5565b5b0492506010810190505b6305f5e1008310611d94576305f5e1008381611d8a57611d89612ff5565b5b0492506008810190505b6127108310611db9576127108381611daf57611dae612ff5565b5b0492506004810190505b60648310611ddc5760648381611dd257611dd1612ff5565b5b0492506002810190505b600a8310611deb576001810190505b80915050919050565b6000808273ffffffffffffffffffffffffffffffffffffffff163b119050919050565b6000604051905090565b600080fd5b600080fd5b60007fffffffff0000000000000000000000000000000000000000000000000000000082169050919050565b611e6081611e2b565b8114611e6b57600080fd5b50565b600081359050611e7d81611e57565b92915050565b600060208284031215611e9957611e98611e21565b5b6000611ea784828501611e6e565b91505092915050565b60008115159050919050565b611ec581611eb0565b82525050565b6000602082019050611ee06000830184611ebc565b92915050565b600081519050919050565b600082825260208201905092915050565b60005b83811015611f20578082015181840152602081019050611f05565b60008484015250505050565b6000601f19601f8301169050919050565b6000611f4882611ee6565b611f528185611ef1565b9350611f62818560208601611f02565b611f6b81611f2c565b840191505092915050565b60006020820190508181036000830152611f908184611f3d565b905092915050565b6000819050919050565b611fab81611f98565b8114611fb657600080fd5b50565b600081359050611fc881611fa2565b92915050565b600060208284031215611fe457611fe3611e21565b5b6000611ff284828501611fb9565b91505092915050565b600073ffffffffffffffffffffffffffffffffffffffff82169050919050565b600061202682611ffb565b9050919050565b6120368161201b565b82525050565b6000602082019050612051600083018461202d565b92915050565b6120608161201b565b811461206b57600080fd5b50565b60008135905061207d81612057565b92915050565b6000806040838503121561209a57612099611e21565b5b60006120a88582860161206e565b92505060206120b985828601611fb9565b9150509250929050565b600080fd5b600080fd5b7f4e487b7100000000000000000000000000000000000000000000000000000000600052604160045260246000fd5b61210582611f2c565b810181811067ffffffffffffffff82111715612124576121236120cd565b5b80604052505050565b6000612137611e17565b905061214382826120fc565b919050565b600067ffffffffffffffff821115612163576121626120cd565b5b61216c82611f2c565b9050602081019050919050565b82818337600083830152505050565b600061219b61219684612148565b61212d565b9050828152602081018484840111156121b7576121b66120c8565b5b6121c2848285612179565b509392505050565b600082601f8301126121df576121de6120c3565b5b81356121ef848260208601612188565b91505092915050565b60006020828403121561220e5761220d611e21565b5b600082013567ffffffffffffffff81111561222c5761222b611e26565b5b612238848285016121ca565b91505092915050565b60008060006060848603121561225a57612259611e21565b5b60006122688682870161206e565b93505060206122798682870161206e565b925050604061228a86828701611fb9565b9150509250925092565b6000602082840312156122aa576122a9611e21565b5b60006122b88482850161206e565b91505092915050565b6122ca81611f98565b82525050565b60006020820190506122e560008301846122c1565b92915050565b6122f481611eb0565b81146122ff57600080fd5b50565b600081359050612311816122eb565b92915050565b6000806040838503121561232e5761232d611e21565b5b600061233c8582860161206e565b925050602061234d85828601612302565b9150509250929050565b600067ffffffffffffffff821115612372576123716120cd565b5b61237b82611f2c565b9050602081019050919050565b600061239b61239684612357565b61212d565b9050828152602081018484840111156123b7576123b66120c8565b5b6123c2848285612179565b509392505050565b600082601f8301126123df576123de6120c3565b5b81356123ef848260208601612388565b91505092915050565b6000806000806080858703121561241257612411611e21565b5b60006124208782880161206e565b94505060206124318782880161206e565b935050604061244287828801611fb9565b925050606085013567ffffffffffffffff81111561246357612462611e26565b5b61246f878288016123ca565b91505092959194509250565b60008060006060848603121561249457612493611e21565b5b60006124a28682870161206e565b935050602084013567ffffffffffffffff8111156124c3576124c2611e26565b5b6124cf868287016121ca565b925050604084013567ffffffffffffffff8111156124f0576124ef611e26565b5b6124fc868287016121ca565b9150509250925092565b6000806040838503121561251d5761251c611e21565b5b600061252b8582860161206e565b925050602061253c8582860161206e565b9150509250929050565b7f4e487b7100000000000000000000000000000000000000000000000000000000600052602260045260246000fd5b6000600282049050600182168061258d57607f821691505b6020821081036125a05761259f612546565b5b50919050565b7f4552433732313a20617070726f76616c20746f2063757272656e74206f776e6560008201527f7200000000000000000000000000000000000000000000000000000000000000602082015250565b6000612602602183611ef1565b915061260d826125a6565b604082019050919050565b60006020820190508181036000830152612631816125f5565b9050919050565b7f4552433732313a20617070726f76652063616c6c6572206973206e6f7420746f60008201527f6b656e206f776e6572206f7220617070726f76656420666f7220616c6c000000602082015250565b6000612694603d83611ef1565b915061269f82612638565b604082019050919050565b600060208201905081810360008301526126c381612687565b9050919050565b600081905092915050565b60006126e082611ee6565b6126ea81856126ca565b93506126fa818560208601611f02565b80840191505092915050565b600061271282846126d5565b915081905092915050565b7f4e6f204e465420666f7220746869732075756964000000000000000000000000600082015250565b6000612753601483611ef1565b915061275e8261271d565b602082019050919050565b6000602082019050818103600083015261278281612746565b9050919050565b7f4552433732313a2063616c6c6572206973206e6f7420746f6b656e206f776e6560008201527f72206f7220617070726f76656400000000000000000000000000000000000000602082015250565b60006127e5602d83611ef1565b91506127f082612789565b604082019050919050565b60006020820190508181036000830152612814816127d8565b9050919050565b7f4552433732313a20696e76616c696420746f6b656e2049440000000000000000600082015250565b6000612851601883611ef1565b915061285c8261281b565b602082019050919050565b6000602082019050818103600083015261288081612844565b9050919050565b7f4552433732313a2061646472657373207a65726f206973206e6f74206120766160008201527f6c6964206f776e65720000000000000000000000000000000000000000000000602082015250565b60006128e3602983611ef1565b91506128ee82612887565b604082019050919050565b60006020820190508181036000830152612912816128d6565b9050919050565b600061292582856126d5565b915061293182846126d5565b91508190509392505050565b7f5555494420557365640000000000000000000000000000000000000000000000600082015250565b6000612973600983611ef1565b915061297e8261293d565b602082019050919050565b600060208201905081810360008301526129a281612966565b9050919050565b60008190508160005260206000209050919050565b60006020601f8301049050919050565b600082821b905092915050565b600060088302612a0b7fffffffffffffffffffffffffffffffffffffffffffffffffffffffffffffffff826129ce565b612a1586836129ce565b95508019841693508086168417925050509392505050565b6000819050919050565b6000612a52612a4d612a4884611f98565b612a2d565b611f98565b9050919050565b6000819050919050565b612a6c83612a37565b612a80612a7882612a59565b8484546129db565b825550505050565b600090565b612a95612a88565b612aa0818484612a63565b505050565b5b81811015612ac457612ab9600082612a8d565b600181019050612aa6565b5050565b601f821115612b0957612ada816129a9565b612ae3846129be565b81016020851015612af2578190505b612b06612afe856129be565b830182612aa5565b50505b505050565b600082821c905092915050565b6000612b2c60001984600802612b0e565b1980831691505092915050565b6000612b458383612b1b565b9150826002028217905092915050565b612b5e82611ee6565b67ffffffffffffffff811115612b7757612b766120cd565b5b612b818254612575565b612b8c828285612ac8565b600060209050601f831160018114612bbf5760008415612bad578287015190505b612bb78582612b39565b865550612c1f565b601f198416612bcd866129a9565b60005b82811015612bf557848901518255600182019150602085019450602081019050612bd0565b86831015612c125784890151612c0e601f891682612b1b565b8355505b6001600288020188555050505b505050505050565b7f4e487b7100000000000000000000000000000000000000000000000000000000600052601160045260246000fd5b6000612c6182611f98565b91507fffffffffffffffffffffffffffffffffffffffffffffffffffffffffffffffff8203612c9357612c92612c27565b5b600182019050919050565b60006040820190508181036000830152612cb88185611f3d565b90508181036020830152612ccc8184611f3d565b90509392505050565b7f4f776e61626c653a206e6577206f776e657220697320746865207a65726f206160008201527f6464726573730000000000000000000000000000000000000000000000000000602082015250565b6000612d31602683611ef1565b9150612d3c82612cd5565b604082019050919050565b60006020820190508181036000830152612d6081612d24565b9050919050565b7f4552433732313a207472616e736665722066726f6d20696e636f72726563742060008201527f6f776e6572000000000000000000000000000000000000000000000000000000602082015250565b6000612dc3602583611ef1565b9150612dce82612d67565b604082019050919050565b60006020820190508181036000830152612df281612db6565b9050919050565b7f4552433732313a207472616e7366657220746f20746865207a65726f2061646460008201527f7265737300000000000000000000000000000000000000000000000000000000602082015250565b6000612e55602483611ef1565b9150612e6082612df9565b604082019050919050565b60006020820190508181036000830152612e8481612e48565b9050919050565b7f4f776e61626c653a2063616c6c6572206973206e6f7420746865206f776e6572600082015250565b6000612ec1602083611ef1565b9150612ecc82612e8b565b602082019050919050565b60006020820190508181036000830152612ef081612eb4565b9050919050565b7f4552433732313a20617070726f766520746f2063616c6c657200000000000000600082015250565b6000612f2d601983611ef1565b9150612f3882612ef7565b602082019050919050565b60006020820190508181036000830152612f5c81612f20565b9050919050565b7f4552433732313a207472616e7366657220746f206e6f6e20455243373231526560008201527f63656976657220696d706c656d656e7465720000000000000000000000000000602082015250565b6000612fbf603283611ef1565b9150612fca82612f63565b604082019050919050565b60006020820190508181036000830152612fee81612fb2565b9050919050565b7f4e487b7100000000000000000000000000000000000000000000000000000000600052601260045260246000fd5b7f4552433732313a206d696e7420746f20746865207a65726f2061646472657373600082015250565b600061305a602083611ef1565b915061306582613024565b602082019050919050565b600060208201905081810360008301526130898161304d565b9050919050565b7f4552433732313a20746f6b656e20616c7265616479206d696e74656400000000600082015250565b60006130c6601c83611ef1565b91506130d182613090565b602082019050919050565b600060208201905081810360008301526130f5816130b9565b9050919050565b600081519050919050565b600082825260208201905092915050565b6000613123826130fc565b61312d8185613107565b935061313d818560208601611f02565b61314681611f2c565b840191505092915050565b6000608082019050613166600083018761202d565b613173602083018661202d565b61318060408301856122c1565b81810360608301526131928184613118565b905095945050505050565b6000815190506131ac81611e57565b92915050565b6000602082840312156131c8576131c7611e21565b5b60006131d68482850161319d565b9150509291505056fea264697066735822122017eb0b8a9d8b1e6ca43bd46687eb52e1c19398b2f7cc1a4d5e65b9a58f494e5964736f6c63430008140033",
  "linkReferences": {},
  "deployedLinkReferences": {}
}